{
  "contractName": "FruitMarketplace",
  "abi": [
    {
      "anonymous": false,
      "inputs": [
        {
          "indexed": true,
          "internalType": "uint256",
          "name": "index",
          "type": "uint256"
        },
        {
          "indexed": false,
          "internalType": "string",
          "name": "name",
          "type": "string"
        },
        {
          "indexed": false,
          "internalType": "uint256",
          "name": "price",
          "type": "uint256"
        },
        {
          "indexed": true,
          "internalType": "address",
          "name": "seller",
          "type": "address"
        }
      ],
      "name": "FruitAdded",
      "type": "event"
    },
    {
      "anonymous": false,
      "inputs": [
        {
          "indexed": true,
          "internalType": "uint256",
          "name": "index",
          "type": "uint256"
        },
        {
          "indexed": true,
          "internalType": "address",
          "name": "buyer",
          "type": "address"
        },
        {
          "indexed": false,
          "internalType": "uint256",
          "name": "price",
          "type": "uint256"
        }
      ],
      "name": "FruitBought",
      "type": "event"
    },
    {
      "anonymous": false,
      "inputs": [
        {
          "indexed": true,
          "internalType": "uint256",
          "name": "index",
          "type": "uint256"
        },
        {
          "indexed": false,
          "internalType": "string",
          "name": "name",
          "type": "string"
        },
        {
          "indexed": false,
          "internalType": "uint256",
          "name": "price",
          "type": "uint256"
        }
      ],
      "name": "FruitUpdated",
      "type": "event"
    },
    {
      "anonymous": false,
      "inputs": [
        {
          "indexed": true,
          "internalType": "address",
          "name": "seller",
          "type": "address"
        },
        {
          "indexed": false,
          "internalType": "uint256",
          "name": "rating",
          "type": "uint256"
        },
        {
          "indexed": true,
          "internalType": "address",
          "name": "rater",
          "type": "address"
        }
      ],
      "name": "SellerRated",
      "type": "event"
    },
    {
      "inputs": [
        {
          "internalType": "uint256",
          "name": "",
          "type": "uint256"
        }
      ],
      "name": "fruits",
      "outputs": [
        {
          "internalType": "string",
          "name": "name",
          "type": "string"
        },
        {
          "internalType": "uint256",
          "name": "price",
          "type": "uint256"
        },
        {
          "internalType": "address payable",
          "name": "seller",
          "type": "address"
        },
        {
          "internalType": "bool",
          "name": "available",
          "type": "bool"
        },
        {
          "internalType": "address",
          "name": "buyer",
          "type": "address"
        }
      ],
      "stateMutability": "view",
      "type": "function"
    },
    {
      "inputs": [
        {
          "internalType": "address",
          "name": "",
          "type": "address"
        },
        {
          "internalType": "address",
          "name": "",
          "type": "address"
        }
      ],
      "name": "hasBoughtFrom",
      "outputs": [
        {
          "internalType": "bool",
          "name": "",
          "type": "bool"
        }
      ],
      "stateMutability": "view",
      "type": "function"
    },
    {
      "inputs": [
        {
          "internalType": "address",
          "name": "",
          "type": "address"
        },
        {
          "internalType": "address",
          "name": "",
          "type": "address"
        }
      ],
      "name": "hasRated",
      "outputs": [
        {
          "internalType": "bool",
          "name": "",
          "type": "bool"
        }
      ],
      "stateMutability": "view",
      "type": "function"
    },
    {
      "inputs": [
        {
          "internalType": "address",
          "name": "",
          "type": "address"
        },
        {
          "internalType": "uint256",
          "name": "",
          "type": "uint256"
        }
      ],
      "name": "sellerFruits",
      "outputs": [
        {
          "internalType": "uint256",
          "name": "",
          "type": "uint256"
        }
      ],
      "stateMutability": "view",
      "type": "function"
    },
    {
      "inputs": [
        {
          "internalType": "address",
          "name": "",
          "type": "address"
        }
      ],
      "name": "sellerRatings",
      "outputs": [
        {
          "internalType": "uint256",
          "name": "rating",
          "type": "uint256"
        },
        {
          "internalType": "uint256",
          "name": "totalRating",
          "type": "uint256"
        },
        {
          "internalType": "uint256",
          "name": "numberOfRatings",
          "type": "uint256"
        }
      ],
      "stateMutability": "view",
      "type": "function"
    },
    {
      "inputs": [
        {
          "internalType": "string",
          "name": "_name",
          "type": "string"
        },
        {
          "internalType": "uint256",
          "name": "_price",
          "type": "uint256"
        }
      ],
      "name": "addFruit",
      "outputs": [],
      "stateMutability": "nonpayable",
      "type": "function"
    },
    {
      "inputs": [
        {
          "internalType": "uint256",
          "name": "_index",
          "type": "uint256"
        }
      ],
      "name": "buyFruit",
      "outputs": [],
      "stateMutability": "payable",
      "type": "function"
    },
    {
      "inputs": [
        {
          "internalType": "address",
          "name": "_seller",
          "type": "address"
        },
        {
          "internalType": "uint256",
          "name": "_rating",
          "type": "uint256"
        }
      ],
      "name": "rateSeller",
      "outputs": [],
      "stateMutability": "nonpayable",
      "type": "function"
    },
    {
      "inputs": [
        {
          "internalType": "uint256",
          "name": "_index",
          "type": "uint256"
        },
        {
          "internalType": "string",
          "name": "_name",
          "type": "string"
        },
        {
          "internalType": "uint256",
          "name": "_price",
          "type": "uint256"
        }
      ],
      "name": "updateFruit",
      "outputs": [],
      "stateMutability": "nonpayable",
      "type": "function"
    },
    {
      "inputs": [
        {
          "internalType": "address",
          "name": "_seller",
          "type": "address"
        }
      ],
      "name": "getSellerAverageRating",
      "outputs": [
        {
          "internalType": "uint256",
          "name": "",
          "type": "uint256"
        }
      ],
      "stateMutability": "view",
      "type": "function"
    },
    {
      "inputs": [],
      "name": "getFruitCount",
      "outputs": [
        {
          "internalType": "uint256",
          "name": "",
          "type": "uint256"
        }
      ],
      "stateMutability": "view",
      "type": "function"
    },
    {
      "inputs": [
        {
          "internalType": "uint256",
          "name": "_index",
          "type": "uint256"
        }
      ],
      "name": "getFruit",
      "outputs": [
        {
          "internalType": "string",
          "name": "name",
          "type": "string"
        },
        {
          "internalType": "uint256",
          "name": "price",
          "type": "uint256"
        },
        {
          "internalType": "address",
          "name": "seller",
          "type": "address"
        },
        {
          "internalType": "bool",
          "name": "available",
          "type": "bool"
        },
        {
          "internalType": "address",
          "name": "buyer",
          "type": "address"
        }
      ],
      "stateMutability": "view",
      "type": "function"
    }
  ],
  "bytecode": "0x608060405234801561000f575f80fd5b50611ff68061001d5f395ff3fe6080604052600436106100a6575f3560e01c80639878003f116100635780639878003f146101dc5780639d08b34614610218578063ba476b6b14610234578063be932ebd1461025e578063c41721621461029a578063f303911e146102da576100a6565b806319617b6a146100aa5780631b3f48e7146100e85780632c365df6146101105780637247f9ea1461014c578063742ab0d31461017457806376ce7fe91461019c575b5f80fd5b3480156100b5575f80fd5b506100d060048036038101906100cb91906112ee565b610316565b6040516100df93929190611331565b60405180910390f35b3480156100f3575f80fd5b5061010e600480360381019061010991906114cc565b61033c565b005b34801561011b575f80fd5b5061013660048036038101906101319190611526565b610592565b604051610143919061157e565b60405180910390f35b348015610157575f80fd5b50610172600480360381019061016d9190611597565b6105bc565b005b34801561017f575f80fd5b5061019a60048036038101906101959190611603565b6107a2565b005b3480156101a7575f80fd5b506101c260048036038101906101bd9190611641565b610b15565b6040516101d39594939291906116f5565b60405180910390f35b3480156101e7575f80fd5b5061020260048036038101906101fd9190611526565b610d18565b60405161020f919061157e565b60405180910390f35b610232600480360381019061022d9190611641565b610d42565b005b34801561023f575f80fd5b506102486110a2565b604051610255919061174d565b60405180910390f35b348015610269575f80fd5b50610284600480360381019061027f91906112ee565b6110ad565b604051610291919061174d565b60405180910390f35b3480156102a5575f80fd5b506102c060048036038101906102bb9190611641565b611147565b6040516102d1959493929190611786565b60405180910390f35b3480156102e5575f80fd5b5061030060048036038101906102fb9190611603565b611258565b60405161030d919061174d565b60405180910390f35b6002602052805f5260405f205f91509050805f0154908060010154908060020154905083565b5f811161037e576040517f08c379a000000000000000000000000000000000000000000000000000000000815260040161037590611828565b60405180910390fd5b5f6040518060a001604052808481526020018381526020013373ffffffffffffffffffffffffffffffffffffffff1681526020016001151581526020015f73ffffffffffffffffffffffffffffffffffffffff16815250908060018154018082558091505060019003905f5260205f2090600402015f909190919091505f820151815f01908161040e9190611a40565b50602082015181600101556040820151816002015f6101000a81548173ffffffffffffffffffffffffffffffffffffffff021916908373ffffffffffffffffffffffffffffffffffffffff16021790555060608201518160020160146101000a81548160ff0219169083151502179055506080820151816003015f6101000a81548173ffffffffffffffffffffffffffffffffffffffff021916908373ffffffffffffffffffffffffffffffffffffffff16021790555050505f60015f805490506104d99190611b3c565b905060015f3373ffffffffffffffffffffffffffffffffffffffff1673ffffffffffffffffffffffffffffffffffffffff1681526020019081526020015f2081908060018154018082558091505060019003905f5260205f20015f90919091909150553373ffffffffffffffffffffffffffffffffffffffff16817f9e95c928c5cf446133642e8ee9d310a8a04b942419e2f132336aa8ca61f55db78585604051610585929190611b6f565b60405180910390a3505050565b6003602052815f5260405f20602052805f5260405f205f915091509054906101000a900460ff1681565b5f805490508310610602576040517f08c379a00000000000000000000000000000000000000000000000000000000081526004016105f990611be7565b60405180910390fd5b5f8111610644576040517f08c379a000000000000000000000000000000000000000000000000000000000815260040161063b90611828565b60405180910390fd5b5f80848154811061065857610657611c05565b5b905f5260205f2090600402019050806002015f9054906101000a900473ffffffffffffffffffffffffffffffffffffffff1673ffffffffffffffffffffffffffffffffffffffff163373ffffffffffffffffffffffffffffffffffffffff16146106f7576040517f08c379a00000000000000000000000000000000000000000000000000000000081526004016106ee90611c7c565b60405180910390fd5b8060020160149054906101000a900460ff16610748576040517f08c379a000000000000000000000000000000000000000000000000000000000815260040161073f90611ce4565b60405180910390fd5b82815f0190816107589190611a40565b50818160010181905550837f38240f3cfedc3627841e88b5daf699605d3f9f98d8a8e92d29f9f48e4ae4a9ee8484604051610794929190611b6f565b60405180910390a250505050565b60058111156107e6576040517f08c379a00000000000000000000000000000000000000000000000000000000081526004016107dd90611d4c565b60405180910390fd5b60035f3373ffffffffffffffffffffffffffffffffffffffff1673ffffffffffffffffffffffffffffffffffffffff1681526020019081526020015f205f8373ffffffffffffffffffffffffffffffffffffffff1673ffffffffffffffffffffffffffffffffffffffff1681526020019081526020015f205f9054906101000a900460ff16156108ab576040517f08c379a00000000000000000000000000000000000000000000000000000000081526004016108a290611db4565b60405180910390fd5b60045f3373ffffffffffffffffffffffffffffffffffffffff1673ffffffffffffffffffffffffffffffffffffffff1681526020019081526020015f205f8373ffffffffffffffffffffffffffffffffffffffff1673ffffffffffffffffffffffffffffffffffffffff1681526020019081526020015f205f9054906101000a900460ff1661096f576040517f08c379a000000000000000000000000000000000000000000000000000000000815260040161096690611e42565b60405180910390fd5b8060025f8473ffffffffffffffffffffffffffffffffffffffff1673ffffffffffffffffffffffffffffffffffffffff1681526020019081526020015f206001015f8282546109be9190611e60565b92505081905550600160025f8473ffffffffffffffffffffffffffffffffffffffff1673ffffffffffffffffffffffffffffffffffffffff1681526020019081526020015f206002015f828254610a159190611e60565b92505081905550600160035f3373ffffffffffffffffffffffffffffffffffffffff1673ffffffffffffffffffffffffffffffffffffffff1681526020019081526020015f205f8473ffffffffffffffffffffffffffffffffffffffff1673ffffffffffffffffffffffffffffffffffffffff1681526020019081526020015f205f6101000a81548160ff0219169083151502179055503373ffffffffffffffffffffffffffffffffffffffff168273ffffffffffffffffffffffffffffffffffffffff167fd1e1a75de6d871246d9a51ee6f672019e38ac805a7adf094efce5b204ad2e84c83604051610b09919061174d565b60405180910390a35050565b60605f805f805f805490508610610b61576040517f08c379a0000000000000000000000000000000000000000000000000000000008152600401610b5890611be7565b60405180910390fd5b5f808781548110610b7557610b74611c05565b5b905f5260205f2090600402016040518060a00160405290815f82018054610b9b90611873565b80601f0160208091040260200160405190810160405280929190818152602001828054610bc790611873565b8015610c125780601f10610be957610100808354040283529160200191610c12565b820191905f5260205f20905b815481529060010190602001808311610bf557829003601f168201915b5050505050815260200160018201548152602001600282015f9054906101000a900473ffffffffffffffffffffffffffffffffffffffff1673ffffffffffffffffffffffffffffffffffffffff1673ffffffffffffffffffffffffffffffffffffffff1681526020016002820160149054906101000a900460ff16151515158152602001600382015f9054906101000a900473ffffffffffffffffffffffffffffffffffffffff1673ffffffffffffffffffffffffffffffffffffffff1673ffffffffffffffffffffffffffffffffffffffff16815250509050805f01518160200151826040015183606001518460800151955095509550955095505091939590929450565b6004602052815f5260405f20602052805f5260405f205f915091509054906101000a900460ff1681565b5f805490508110610d88576040517f08c379a0000000000000000000000000000000000000000000000000000000008152600401610d7f90611be7565b60405180910390fd5b5f808281548110610d9c57610d9b611c05565b5b905f5260205f20906004020190508060020160149054906101000a900460ff16610dfb576040517f08c379a0000000000000000000000000000000000000000000000000000000008152600401610df290611ce4565b60405180910390fd5b8060010154341015610e42576040517f08c379a0000000000000000000000000000000000000000000000000000000008152600401610e3990611edd565b60405180910390fd5b806002015f9054906101000a900473ffffffffffffffffffffffffffffffffffffffff1673ffffffffffffffffffffffffffffffffffffffff163373ffffffffffffffffffffffffffffffffffffffff1603610ed3576040517f08c379a0000000000000000000000000000000000000000000000000000000008152600401610eca90611f45565b60405180910390fd5b5f8160020160146101000a81548160ff02191690831515021790555033816003015f6101000a81548173ffffffffffffffffffffffffffffffffffffffff021916908373ffffffffffffffffffffffffffffffffffffffff160217905550806002015f9054906101000a900473ffffffffffffffffffffffffffffffffffffffff1673ffffffffffffffffffffffffffffffffffffffff166108fc3490811502906040515f60405180830381858888f19350505050158015610f97573d5f803e3d5ffd5b50600160045f3373ffffffffffffffffffffffffffffffffffffffff1673ffffffffffffffffffffffffffffffffffffffff1681526020019081526020015f205f836002015f9054906101000a900473ffffffffffffffffffffffffffffffffffffffff1673ffffffffffffffffffffffffffffffffffffffff1673ffffffffffffffffffffffffffffffffffffffff1681526020019081526020015f205f6101000a81548160ff0219169083151502179055503373ffffffffffffffffffffffffffffffffffffffff16827f6a15588c94cf26e8d964d904d94dba7e933524e1b1937cac731d45d9060c54fe8360010154604051611096919061174d565b60405180910390a35050565b5f8080549050905090565b5f8060025f8473ffffffffffffffffffffffffffffffffffffffff1673ffffffffffffffffffffffffffffffffffffffff1681526020019081526020015f206040518060600160405290815f82015481526020016001820154815260200160028201548152505090505f81604001510361112a575f915050611142565b8060400151816020015161113e9190611f90565b9150505b919050565b5f8181548110611155575f80fd5b905f5260205f2090600402015f91509050805f01805461117490611873565b80601f01602080910402602001604051908101604052809291908181526020018280546111a090611873565b80156111eb5780601f106111c2576101008083540402835291602001916111eb565b820191905f5260205f20905b8154815290600101906020018083116111ce57829003601f168201915b505050505090806001015490806002015f9054906101000a900473ffffffffffffffffffffffffffffffffffffffff16908060020160149054906101000a900460ff1690806003015f9054906101000a900473ffffffffffffffffffffffffffffffffffffffff16905085565b6001602052815f5260405f208181548110611271575f80fd5b905f5260205f20015f91509150505481565b5f604051905090565b5f80fd5b5f80fd5b5f73ffffffffffffffffffffffffffffffffffffffff82169050919050565b5f6112bd82611294565b9050919050565b6112cd816112b3565b81146112d7575f80fd5b50565b5f813590506112e8816112c4565b92915050565b5f602082840312156113035761130261128c565b5b5f611310848285016112da565b91505092915050565b5f819050919050565b61132b81611319565b82525050565b5f6060820190506113445f830186611322565b6113516020830185611322565b61135e6040830184611322565b949350505050565b5f80fd5b5f80fd5b5f601f19601f8301169050919050565b7f4e487b71000000000000000000000000000000000000000000000000000000005f52604160045260245ffd5b6113b48261136e565b810181811067ffffffffffffffff821117156113d3576113d261137e565b5b80604052505050565b5f6113e5611283565b90506113f182826113ab565b919050565b5f67ffffffffffffffff8211156114105761140f61137e565b5b6114198261136e565b9050602081019050919050565b828183375f83830152505050565b5f611446611441846113f6565b6113dc565b9050828152602081018484840111156114625761146161136a565b5b61146d848285611426565b509392505050565b5f82601f83011261148957611488611366565b5b8135611499848260208601611434565b91505092915050565b6114ab81611319565b81146114b5575f80fd5b50565b5f813590506114c6816114a2565b92915050565b5f80604083850312156114e2576114e161128c565b5b5f83013567ffffffffffffffff8111156114ff576114fe611290565b5b61150b85828601611475565b925050602061151c858286016114b8565b9150509250929050565b5f806040838503121561153c5761153b61128c565b5b5f611549858286016112da565b925050602061155a858286016112da565b9150509250929050565b5f8115159050919050565b61157881611564565b82525050565b5f6020820190506115915f83018461156f565b92915050565b5f805f606084860312156115ae576115ad61128c565b5b5f6115bb868287016114b8565b935050602084013567ffffffffffffffff8111156115dc576115db611290565b5b6115e886828701611475565b92505060406115f9868287016114b8565b9150509250925092565b5f80604083850312156116195761161861128c565b5b5f611626858286016112da565b9250506020611637858286016114b8565b9150509250929050565b5f602082840312156116565761165561128c565b5b5f611663848285016114b8565b91505092915050565b5f81519050919050565b5f82825260208201905092915050565b5f5b838110156116a3578082015181840152602081019050611688565b5f8484015250505050565b5f6116b88261166c565b6116c28185611676565b93506116d2818560208601611686565b6116db8161136e565b840191505092915050565b6116ef816112b3565b82525050565b5f60a0820190508181035f83015261170d81886116ae565b905061171c6020830187611322565b61172960408301866116e6565b611736606083018561156f565b61174360808301846116e6565b9695505050505050565b5f6020820190506117605f830184611322565b92915050565b5f61177082611294565b9050919050565b61178081611766565b82525050565b5f60a0820190508181035f83015261179e81886116ae565b90506117ad6020830187611322565b6117ba6040830186611777565b6117c7606083018561156f565b6117d460808301846116e6565b9695505050505050565b7f5072696365206d7573742062652067726561746572207468616e2030000000005f82015250565b5f611812601c83611676565b915061181d826117de565b602082019050919050565b5f6020820190508181035f83015261183f81611806565b9050919050565b7f4e487b71000000000000000000000000000000000000000000000000000000005f52602260045260245ffd5b5f600282049050600182168061188a57607f821691505b60208210810361189d5761189c611846565b5b50919050565b5f819050815f5260205f209050919050565b5f6020601f8301049050919050565b5f82821b905092915050565b5f600883026118ff7fffffffffffffffffffffffffffffffffffffffffffffffffffffffffffffffff826118c4565b61190986836118c4565b95508019841693508086168417925050509392505050565b5f819050919050565b5f61194461193f61193a84611319565b611921565b611319565b9050919050565b5f819050919050565b61195d8361192a565b6119716119698261194b565b8484546118d0565b825550505050565b5f90565b611985611979565b611990818484611954565b505050565b5b818110156119b3576119a85f8261197d565b600181019050611996565b5050565b601f8211156119f8576119c9816118a3565b6119d2846118b5565b810160208510156119e1578190505b6119f56119ed856118b5565b830182611995565b50505b505050565b5f82821c905092915050565b5f611a185f19846008026119fd565b1980831691505092915050565b5f611a308383611a09565b9150826002028217905092915050565b611a498261166c565b67ffffffffffffffff811115611a6257611a6161137e565b5b611a6c8254611873565b611a778282856119b7565b5f60209050601f831160018114611aa8575f8415611a96578287015190505b611aa08582611a25565b865550611b07565b601f198416611ab6866118a3565b5f5b82811015611add57848901518255600182019150602085019450602081019050611ab8565b86831015611afa5784890151611af6601f891682611a09565b8355505b6001600288020188555050505b505050505050565b7f4e487b71000000000000000000000000000000000000000000000000000000005f52601160045260245ffd5b5f611b4682611319565b9150611b5183611319565b9250828203905081811115611b6957611b68611b0f565b5b92915050565b5f6040820190508181035f830152611b8781856116ae565b9050611b966020830184611322565b9392505050565b7f496e76616c696420667275697420696e646578000000000000000000000000005f82015250565b5f611bd1601383611676565b9150611bdc82611b9d565b602082019050919050565b5f6020820190508181035f830152611bfe81611bc5565b9050919050565b7f4e487b71000000000000000000000000000000000000000000000000000000005f52603260045260245ffd5b7f4f6e6c792073656c6c65722063616e20757064617465000000000000000000005f82015250565b5f611c66601683611676565b9150611c7182611c32565b602082019050919050565b5f6020820190508181035f830152611c9381611c5a565b9050919050565b7f467275697420616c726561647920736f6c6400000000000000000000000000005f82015250565b5f611cce601283611676565b9150611cd982611c9a565b602082019050919050565b5f6020820190508181035f830152611cfb81611cc2565b9050919050565b7f526174696e67206d757374206265206f7574206f6620350000000000000000005f82015250565b5f611d36601783611676565b9150611d4182611d02565b602082019050919050565b5f6020820190508181035f830152611d6381611d2a565b9050919050565b7f596f7520616c726561647920726174656420746869732073656c6c65720000005f82015250565b5f611d9e601d83611676565b9150611da982611d6a565b602082019050919050565b5f6020820190508181035f830152611dcb81611d92565b9050919050565b7f596f75206d757374206861766520626f756768742066726f6d207468697320735f8201527f656c6c6572000000000000000000000000000000000000000000000000000000602082015250565b5f611e2c602583611676565b9150611e3782611dd2565b604082019050919050565b5f6020820190508181035f830152611e5981611e20565b9050919050565b5f611e6a82611319565b9150611e7583611319565b9250828201905080821115611e8d57611e8c611b0f565b5b92915050565b7f4e6f7420656e6f7567682066756e6473000000000000000000000000000000005f82015250565b5f611ec7601083611676565b9150611ed282611e93565b602082019050919050565b5f6020820190508181035f830152611ef481611ebb565b9050919050565b7f53656c6c65722063616e6e6f7420627579206f776e20667275697400000000005f82015250565b5f611f2f601b83611676565b9150611f3a82611efb565b602082019050919050565b5f6020820190508181035f830152611f5c81611f23565b9050919050565b7f4e487b71000000000000000000000000000000000000000000000000000000005f52601260045260245ffd5b5f611f9a82611319565b9150611fa583611319565b925082611fb557611fb4611f63565b5b82820490509291505056fea2646970667358221220cdb01ee0c87b4728016c4fdf09657e08c280b2cb98bbf89e5ab4f317c813706264736f6c63430008150033",
  "immutableReferences": {},
  "source": "// SPDX-License-Identifier: MIT\r\npragma solidity ^0.8.20;\r\n\r\ncontract FruitMarketplace {\r\n    struct Fruit {\r\n        string name;\r\n        uint price;\r\n        address payable seller;\r\n        bool available;\r\n        address buyer;\r\n    }\r\n\r\n    struct Rating {\r\n        uint rating;\r\n        uint totalRating;\r\n        uint numberOfRatings;\r\n    }\r\n\r\n    Fruit[] public fruits;\r\n\r\n    mapping(address => uint[]) public sellerFruits;\r\n    mapping(address => Rating) public sellerRatings;\r\n    mapping(address => mapping(address => bool)) public hasRated;\r\n    mapping(address => mapping(address => bool)) public hasBoughtFrom;\r\n\r\n    event FruitAdded(\r\n        uint indexed index,\r\n        string name,\r\n        uint price,\r\n        address indexed seller\r\n    );\r\n    event FruitBought(uint indexed index, address indexed buyer, uint price);\r\n    event SellerRated(\r\n        address indexed seller,\r\n        uint rating,\r\n        address indexed rater\r\n    );\r\n    event FruitUpdated(uint indexed index, string name, uint price);\r\n\r\n    // Ajouter un fruit\r\n    function addFruit(string memory _name, uint _price) public {\r\n        require(_price > 0, \"Price must be greater than 0\");\r\n        fruits.push(\r\n            Fruit(_name, _price, payable(msg.sender), true, address(0))\r\n        );\r\n        uint index = fruits.length - 1;\r\n        sellerFruits[msg.sender].push(index);\r\n\r\n        emit FruitAdded(index, _name, _price, msg.sender);\r\n    }\r\n\r\n    // Acheter un fruit\r\n    function buyFruit(uint _index) public payable {\r\n        require(_index < fruits.length, \"Invalid fruit index\");\r\n        Fruit storage fruit = fruits[_index];\r\n        require(fruit.available, \"Fruit already sold\");\r\n        require(msg.value >= fruit.price, \"Not enough funds\");\r\n        require(msg.sender != fruit.seller, \"Seller cannot buy own fruit\");\r\n\r\n        fruit.available = false;\r\n        fruit.buyer = msg.sender;\r\n        fruit.seller.transfer(msg.value);\r\n        hasBoughtFrom[msg.sender][fruit.seller] = true;\r\n\r\n        emit FruitBought(_index, msg.sender, fruit.price);\r\n    }\r\n\r\n    // Noter un vendeur\r\n    function rateSeller(address _seller, uint _rating) public {\r\n        require(_rating <= 5, \"Rating must be out of 5\");\r\n        require(\r\n            !hasRated[msg.sender][_seller],\r\n            \"You already rated this seller\"\r\n        );\r\n        require(\r\n            hasBoughtFrom[msg.sender][_seller],\r\n            \"You must have bought from this seller\"\r\n        );\r\n\r\n        sellerRatings[_seller].totalRating += _rating;\r\n        sellerRatings[_seller].numberOfRatings += 1;\r\n        hasRated[msg.sender][_seller] = true;\r\n\r\n        emit SellerRated(_seller, _rating, msg.sender);\r\n    }\r\n\r\n    // Mettre  jour un fruit\r\n    function updateFruit(uint _index, string memory _name, uint _price) public {\r\n        require(_index < fruits.length, \"Invalid fruit index\");\r\n        require(_price > 0, \"Price must be greater than 0\");\r\n\r\n        Fruit storage fruit = fruits[_index];\r\n        require(msg.sender == fruit.seller, \"Only seller can update\");\r\n        require(fruit.available, \"Fruit already sold\");\r\n\r\n        fruit.name = _name;\r\n        fruit.price = _price;\r\n\r\n        emit FruitUpdated(_index, _name, _price);\r\n    }\r\n\r\n    // Moyenne de note dun vendeur\r\n    function getSellerAverageRating(\r\n        address _seller\r\n    ) public view returns (uint) {\r\n        Rating memory r = sellerRatings[_seller];\r\n        if (r.numberOfRatings == 0) return 0;\r\n        return r.totalRating / r.numberOfRatings;\r\n    }\r\n\r\n    // Nouvelle fonction : Nombre total de fruits\r\n    function getFruitCount() public view returns (uint) {\r\n        return fruits.length;\r\n    }\r\n\r\n    // Nouvelle fonction : Dtails dun fruit\r\n    function getFruit(\r\n        uint _index\r\n    )\r\n        public\r\n        view\r\n        returns (\r\n            string memory name,\r\n            uint price,\r\n            address seller,\r\n            bool available,\r\n            address buyer\r\n        )\r\n    {\r\n        require(_index < fruits.length, \"Invalid fruit index\");\r\n        Fruit memory fruit = fruits[_index];\r\n        return (\r\n            fruit.name,\r\n            fruit.price,\r\n            fruit.seller,\r\n            fruit.available,\r\n            fruit.buyer\r\n        );\r\n    }\r\n}\r\n",
  "sourcePath": "D:\\GLO7100\\ethereum\\contracts\\FruitMarketplace.sol",
  "compiler": {
    "name": "solc",
    "version": "0.8.21+commit.d9974bed.Emscripten.clang"
  },
  "schemaVersion": "3.4.16",
  "updatedAt": "2025-04-17T05:31:07.304Z",
  "devdoc": {
    "kind": "dev",
    "methods": {},
    "version": 1
  },
  "userdoc": {
    "kind": "user",
    "methods": {},
    "version": 1
  }
}