{
  "contractName": "FruitMarketplace",
  "abi": [
    {
      "inputs": [
        {
          "internalType": "uint256",
          "name": "",
          "type": "uint256"
        }
      ],
      "name": "fruits",
      "outputs": [
        {
          "internalType": "string",
          "name": "name",
          "type": "string"
        },
        {
          "internalType": "uint256",
          "name": "price",
          "type": "uint256"
        },
        {
          "internalType": "address payable",
          "name": "seller",
          "type": "address"
        },
        {
          "internalType": "bool",
          "name": "available",
          "type": "bool"
        },
        {
          "internalType": "address",
          "name": "buyer",
          "type": "address"
        }
      ],
      "stateMutability": "view",
      "type": "function"
    },
    {
      "inputs": [
        {
          "internalType": "address",
          "name": "",
          "type": "address"
        },
        {
          "internalType": "uint256",
          "name": "",
          "type": "uint256"
        }
      ],
      "name": "sellerFruits",
      "outputs": [
        {
          "internalType": "uint256",
          "name": "",
          "type": "uint256"
        }
      ],
      "stateMutability": "view",
      "type": "function"
    },
    {
      "inputs": [
        {
          "internalType": "address",
          "name": "",
          "type": "address"
        }
      ],
      "name": "sellerRatings",
      "outputs": [
        {
          "internalType": "uint256",
          "name": "",
          "type": "uint256"
        }
      ],
      "stateMutability": "view",
      "type": "function"
    },
    {
      "inputs": [
        {
          "internalType": "string",
          "name": "_name",
          "type": "string"
        },
        {
          "internalType": "uint256",
          "name": "_price",
          "type": "uint256"
        }
      ],
      "name": "addFruit",
      "outputs": [],
      "stateMutability": "nonpayable",
      "type": "function"
    },
    {
      "inputs": [
        {
          "internalType": "uint256",
          "name": "_index",
          "type": "uint256"
        }
      ],
      "name": "buyFruit",
      "outputs": [],
      "stateMutability": "payable",
      "type": "function"
    },
    {
      "inputs": [
        {
          "internalType": "address",
          "name": "_seller",
          "type": "address"
        },
        {
          "internalType": "uint256",
          "name": "_rating",
          "type": "uint256"
        }
      ],
      "name": "rateSeller",
      "outputs": [],
      "stateMutability": "nonpayable",
      "type": "function"
    },
    {
      "inputs": [
        {
          "internalType": "uint256",
          "name": "_index",
          "type": "uint256"
        },
        {
          "internalType": "string",
          "name": "_name",
          "type": "string"
        },
        {
          "internalType": "uint256",
          "name": "_price",
          "type": "uint256"
        }
      ],
      "name": "updateFruit",
      "outputs": [],
      "stateMutability": "nonpayable",
      "type": "function"
    },
    {
      "inputs": [],
      "name": "getFruits",
      "outputs": [
        {
          "components": [
            {
              "internalType": "string",
              "name": "name",
              "type": "string"
            },
            {
              "internalType": "uint256",
              "name": "price",
              "type": "uint256"
            },
            {
              "internalType": "address payable",
              "name": "seller",
              "type": "address"
            },
            {
              "internalType": "bool",
              "name": "available",
              "type": "bool"
            },
            {
              "internalType": "address",
              "name": "buyer",
              "type": "address"
            }
          ],
          "internalType": "struct FruitMarketplace.Fruit[]",
          "name": "",
          "type": "tuple[]"
        }
      ],
      "stateMutability": "view",
      "type": "function"
    }
  ],
  "bytecode": "0x608060405234801561000f575f80fd5b506115ca8061001d5f395ff3fe60806040526004361061007a575f3560e01c80639d08b3461161004d5780639d08b34614610132578063c41721621461014e578063e6958cf71461018e578063f303911e146101b85761007a565b806319617b6a1461007e5780631b3f48e7146100ba5780637247f9ea146100e2578063742ab0d31461010a575b5f80fd5b348015610089575f80fd5b506100a4600480360381019061009f9190610a58565b6101f4565b6040516100b19190610a9b565b60405180910390f35b3480156100c5575f80fd5b506100e060048036038101906100db9190610c1a565b610209565b005b3480156100ed575f80fd5b5061010860048036038101906101039190610c74565b6103c7565b005b348015610115575f80fd5b50610130600480360381019061012b9190610ce0565b6104eb565b005b61014c60048036038101906101479190610d1e565b610575565b005b348015610159575f80fd5b50610174600480360381019061016f9190610d1e565b6106f8565b604051610185959493929190610e0c565b60405180910390f35b348015610199575f80fd5b506101a2610809565b6040516101af9190611016565b60405180910390f35b3480156101c3575f80fd5b506101de60048036038101906101d99190610ce0565b6109c2565b6040516101eb9190610a9b565b60405180910390f35b6002602052805f5260405f205f915090505481565b5f6040518060a001604052808481526020018381526020013373ffffffffffffffffffffffffffffffffffffffff1681526020016001151581526020015f73ffffffffffffffffffffffffffffffffffffffff16815250908060018154018082558091505060019003905f5260205f2090600402015f909190919091505f820151815f0190816102999190611230565b50602082015181600101556040820151816002015f6101000a81548173ffffffffffffffffffffffffffffffffffffffff021916908373ffffffffffffffffffffffffffffffffffffffff16021790555060608201518160020160146101000a81548160ff0219169083151502179055506080820151816003015f6101000a81548173ffffffffffffffffffffffffffffffffffffffff021916908373ffffffffffffffffffffffffffffffffffffffff160217905550505060015f3373ffffffffffffffffffffffffffffffffffffffff1673ffffffffffffffffffffffffffffffffffffffff1681526020019081526020015f2060015f805490506103a0919061132c565b908060018154018082558091505060019003905f5260205f20015f90919091909150555050565b5f8084815481106103db576103da61135f565b5b905f5260205f2090600402019050806002015f9054906101000a900473ffffffffffffffffffffffffffffffffffffffff1673ffffffffffffffffffffffffffffffffffffffff163373ffffffffffffffffffffffffffffffffffffffff161461047a576040517f08c379a0000000000000000000000000000000000000000000000000000000008152600401610471906113d6565b60405180910390fd5b8060020160149054906101000a900460ff166104cb576040517f08c379a00000000000000000000000000000000000000000000000000000000081526004016104c29061143e565b60405180910390fd5b82815f0190816104db9190611230565b5081816001018190555050505050565b600581111561052f576040517f08c379a0000000000000000000000000000000000000000000000000000000008152600401610526906114a6565b60405180910390fd5b8060025f8473ffffffffffffffffffffffffffffffffffffffff1673ffffffffffffffffffffffffffffffffffffffff1681526020019081526020015f20819055505050565b5f8082815481106105895761058861135f565b5b905f5260205f20906004020190508060020160149054906101000a900460ff166105e8576040517f08c379a00000000000000000000000000000000000000000000000000000000081526004016105df9061150e565b60405180910390fd5b806001015434101561062f576040517f08c379a000000000000000000000000000000000000000000000000000000000815260040161062690611576565b60405180910390fd5b5f8160020160146101000a81548160ff02191690831515021790555033816003015f6101000a81548173ffffffffffffffffffffffffffffffffffffffff021916908373ffffffffffffffffffffffffffffffffffffffff160217905550806002015f9054906101000a900473ffffffffffffffffffffffffffffffffffffffff1673ffffffffffffffffffffffffffffffffffffffff166108fc3490811502906040515f60405180830381858888f193505050501580156106f3573d5f803e3d5ffd5b505050565b5f8181548110610706575f80fd5b905f5260205f2090600402015f91509050805f01805461072590611063565b80601f016020809104026020016040519081016040528092919081815260200182805461075190611063565b801561079c5780601f106107735761010080835404028352916020019161079c565b820191905f5260205f20905b81548152906001019060200180831161077f57829003601f168201915b505050505090806001015490806002015f9054906101000a900473ffffffffffffffffffffffffffffffffffffffff16908060020160149054906101000a900460ff1690806003015f9054906101000a900473ffffffffffffffffffffffffffffffffffffffff16905085565b60605f805480602002602001604051908101604052809291908181526020015f905b828210156109b9578382905f5260205f2090600402016040518060a00160405290815f8201805461085b90611063565b80601f016020809104026020016040519081016040528092919081815260200182805461088790611063565b80156108d25780601f106108a9576101008083540402835291602001916108d2565b820191905f5260205f20905b8154815290600101906020018083116108b557829003601f168201915b5050505050815260200160018201548152602001600282015f9054906101000a900473ffffffffffffffffffffffffffffffffffffffff1673ffffffffffffffffffffffffffffffffffffffff1673ffffffffffffffffffffffffffffffffffffffff1681526020016002820160149054906101000a900460ff16151515158152602001600382015f9054906101000a900473ffffffffffffffffffffffffffffffffffffffff1673ffffffffffffffffffffffffffffffffffffffff1673ffffffffffffffffffffffffffffffffffffffff16815250508152602001906001019061082b565b50505050905090565b6001602052815f5260405f2081815481106109db575f80fd5b905f5260205f20015f91509150505481565b5f604051905090565b5f80fd5b5f80fd5b5f73ffffffffffffffffffffffffffffffffffffffff82169050919050565b5f610a27826109fe565b9050919050565b610a3781610a1d565b8114610a41575f80fd5b50565b5f81359050610a5281610a2e565b92915050565b5f60208284031215610a6d57610a6c6109f6565b5b5f610a7a84828501610a44565b91505092915050565b5f819050919050565b610a9581610a83565b82525050565b5f602082019050610aae5f830184610a8c565b92915050565b5f80fd5b5f80fd5b5f601f19601f8301169050919050565b7f4e487b71000000000000000000000000000000000000000000000000000000005f52604160045260245ffd5b610b0282610abc565b810181811067ffffffffffffffff82111715610b2157610b20610acc565b5b80604052505050565b5f610b336109ed565b9050610b3f8282610af9565b919050565b5f67ffffffffffffffff821115610b5e57610b5d610acc565b5b610b6782610abc565b9050602081019050919050565b828183375f83830152505050565b5f610b94610b8f84610b44565b610b2a565b905082815260208101848484011115610bb057610baf610ab8565b5b610bbb848285610b74565b509392505050565b5f82601f830112610bd757610bd6610ab4565b5b8135610be7848260208601610b82565b91505092915050565b610bf981610a83565b8114610c03575f80fd5b50565b5f81359050610c1481610bf0565b92915050565b5f8060408385031215610c3057610c2f6109f6565b5b5f83013567ffffffffffffffff811115610c4d57610c4c6109fa565b5b610c5985828601610bc3565b9250506020610c6a85828601610c06565b9150509250929050565b5f805f60608486031215610c8b57610c8a6109f6565b5b5f610c9886828701610c06565b935050602084013567ffffffffffffffff811115610cb957610cb86109fa565b5b610cc586828701610bc3565b9250506040610cd686828701610c06565b9150509250925092565b5f8060408385031215610cf657610cf56109f6565b5b5f610d0385828601610a44565b9250506020610d1485828601610c06565b9150509250929050565b5f60208284031215610d3357610d326109f6565b5b5f610d4084828501610c06565b91505092915050565b5f81519050919050565b5f82825260208201905092915050565b5f5b83811015610d80578082015181840152602081019050610d65565b5f8484015250505050565b5f610d9582610d49565b610d9f8185610d53565b9350610daf818560208601610d63565b610db881610abc565b840191505092915050565b5f610dcd826109fe565b9050919050565b610ddd81610dc3565b82525050565b5f8115159050919050565b610df781610de3565b82525050565b610e0681610a1d565b82525050565b5f60a0820190508181035f830152610e248188610d8b565b9050610e336020830187610a8c565b610e406040830186610dd4565b610e4d6060830185610dee565b610e5a6080830184610dfd565b9695505050505050565b5f81519050919050565b5f82825260208201905092915050565b5f819050602082019050919050565b5f82825260208201905092915050565b5f610ea782610d49565b610eb18185610e8d565b9350610ec1818560208601610d63565b610eca81610abc565b840191505092915050565b610ede81610a83565b82525050565b610eed81610dc3565b82525050565b610efc81610de3565b82525050565b610f0b81610a1d565b82525050565b5f60a083015f8301518482035f860152610f2b8282610e9d565b9150506020830151610f406020860182610ed5565b506040830151610f536040860182610ee4565b506060830151610f666060860182610ef3565b506080830151610f796080860182610f02565b508091505092915050565b5f610f8f8383610f11565b905092915050565b5f602082019050919050565b5f610fad82610e64565b610fb78185610e6e565b935083602082028501610fc985610e7e565b805f5b858110156110045784840389528151610fe58582610f84565b9450610ff083610f97565b925060208a01995050600181019050610fcc565b50829750879550505050505092915050565b5f6020820190508181035f83015261102e8184610fa3565b905092915050565b7f4e487b71000000000000000000000000000000000000000000000000000000005f52602260045260245ffd5b5f600282049050600182168061107a57607f821691505b60208210810361108d5761108c611036565b5b50919050565b5f819050815f5260205f209050919050565b5f6020601f8301049050919050565b5f82821b905092915050565b5f600883026110ef7fffffffffffffffffffffffffffffffffffffffffffffffffffffffffffffffff826110b4565b6110f986836110b4565b95508019841693508086168417925050509392505050565b5f819050919050565b5f61113461112f61112a84610a83565b611111565b610a83565b9050919050565b5f819050919050565b61114d8361111a565b6111616111598261113b565b8484546110c0565b825550505050565b5f90565b611175611169565b611180818484611144565b505050565b5b818110156111a3576111985f8261116d565b600181019050611186565b5050565b601f8211156111e8576111b981611093565b6111c2846110a5565b810160208510156111d1578190505b6111e56111dd856110a5565b830182611185565b50505b505050565b5f82821c905092915050565b5f6112085f19846008026111ed565b1980831691505092915050565b5f61122083836111f9565b9150826002028217905092915050565b61123982610d49565b67ffffffffffffffff81111561125257611251610acc565b5b61125c8254611063565b6112678282856111a7565b5f60209050601f831160018114611298575f8415611286578287015190505b6112908582611215565b8655506112f7565b601f1984166112a686611093565b5f5b828110156112cd578489015182556001820191506020850194506020810190506112a8565b868310156112ea57848901516112e6601f8916826111f9565b8355505b6001600288020188555050505b505050505050565b7f4e487b71000000000000000000000000000000000000000000000000000000005f52601160045260245ffd5b5f61133682610a83565b915061134183610a83565b9250828203905081811115611359576113586112ff565b5b92915050565b7f4e487b71000000000000000000000000000000000000000000000000000000005f52603260045260245ffd5b7f4f6e6c792073656c6c65722063616e20757064617465000000000000000000005f82015250565b5f6113c0601683610d53565b91506113cb8261138c565b602082019050919050565b5f6020820190508181035f8301526113ed816113b4565b9050919050565b7f467275697420616c7265647920736f6c640000000000000000000000000000005f82015250565b5f611428601183610d53565b9150611433826113f4565b602082019050919050565b5f6020820190508181035f8301526114558161141c565b9050919050565b7f52617474696e67206d757374206265206f7574206f66203500000000000000005f82015250565b5f611490601883610d53565b915061149b8261145c565b602082019050919050565b5f6020820190508181035f8301526114bd81611484565b9050919050565b7f467275697420616c726561647920736f6c6400000000000000000000000000005f82015250565b5f6114f8601283610d53565b9150611503826114c4565b602082019050919050565b5f6020820190508181035f830152611525816114ec565b9050919050565b7f4e6f7420656e6f7567682066756e6473000000000000000000000000000000005f82015250565b5f611560601083610d53565b915061156b8261152c565b602082019050919050565b5f6020820190508181035f83015261158d81611554565b905091905056fea26469706673582212203c5d483bcdbe740d0447d177f6971bff02bcff124bd7c2fa3fc126ffe69083bb64736f6c63430008150033",
  "immutableReferences": {},
  "source": "// SPDX-License-Identifier: MIT\r\npragma solidity ^0.8.20;\r\n\r\ncontract FruitMarketplace {\r\n    struct Fruit {\r\n        string name;\r\n        uint price;\r\n        address payable seller;\r\n        bool available;\r\n        address buyer;\r\n    }\r\n\r\n    Fruit[] public fruits;\r\n\r\n    mapping(address => uint[]) public sellerFruits;\r\n    mapping(address => uint) public sellerRatings;\r\n\r\n    function addFruit(string memory _name, uint _price) public {\r\n        fruits.push(\r\n            Fruit(_name, _price, payable(msg.sender), true, address(0))\r\n        );\r\n        sellerFruits[msg.sender].push(fruits.length - 1);\r\n    }\r\n\r\n    function buyFruit(uint _index) public payable {\r\n        Fruit storage fruit = fruits[_index];\r\n        require(fruit.available, \"Fruit already sold\");\r\n        require(msg.value >= fruit.price, \"Not enough funds\");\r\n\r\n        fruit.available = false;\r\n        fruit.buyer = msg.sender;\r\n        fruit.seller.transfer(msg.value);\r\n    }\r\n\r\n    function rateSeller(address _seller, uint _rating) public {\r\n        require(_rating <= 5, \"Ratting must be out of 5\");\r\n        sellerRatings[_seller] = _rating;\r\n    }\r\n\r\n    function updateFruit(uint _index, string memory _name, uint _price) public {\r\n        Fruit storage fruit = fruits[_index];\r\n        require(msg.sender == fruit.seller, \"Only seller can update\");\r\n        require(fruit.available, \"Fruit alredy sold\");\r\n        fruit.name = _name;\r\n        fruit.price = _price;\r\n    }\r\n\r\n    function getFruits() public view returns (Fruit[] memory) {\r\n        return fruits;\r\n    }\r\n}\r\n",
  "sourcePath": "D:\\GLO7100\\FruitMarket\\contracts\\FruitMarketplace.sol",
  "compiler": {
    "name": "solc",
    "version": "0.8.21+commit.d9974bed.Emscripten.clang"
  },
  "schemaVersion": "3.4.16",
  "updatedAt": "2025-04-21T03:32:52.627Z",
  "devdoc": {
    "kind": "dev",
    "methods": {},
    "version": 1
  },
  "userdoc": {
    "kind": "user",
    "methods": {},
    "version": 1
  }
}