{
  "contractName": "FruitMarketplace",
  "abi": [
    {
      "anonymous": false,
      "inputs": [
        {
          "indexed": true,
          "internalType": "uint256",
          "name": "index",
          "type": "uint256"
        },
        {
          "indexed": false,
          "internalType": "string",
          "name": "name",
          "type": "string"
        },
        {
          "indexed": false,
          "internalType": "uint256",
          "name": "price",
          "type": "uint256"
        },
        {
          "indexed": true,
          "internalType": "address",
          "name": "seller",
          "type": "address"
        }
      ],
      "name": "FruitAdded",
      "type": "event"
    },
    {
      "anonymous": false,
      "inputs": [
        {
          "indexed": true,
          "internalType": "uint256",
          "name": "index",
          "type": "uint256"
        },
        {
          "indexed": true,
          "internalType": "address",
          "name": "buyer",
          "type": "address"
        },
        {
          "indexed": false,
          "internalType": "uint256",
          "name": "price",
          "type": "uint256"
        }
      ],
      "name": "FruitBought",
      "type": "event"
    },
    {
      "anonymous": false,
      "inputs": [
        {
          "indexed": true,
          "internalType": "uint256",
          "name": "index",
          "type": "uint256"
        },
        {
          "indexed": false,
          "internalType": "string",
          "name": "name",
          "type": "string"
        },
        {
          "indexed": false,
          "internalType": "uint256",
          "name": "price",
          "type": "uint256"
        }
      ],
      "name": "FruitUpdated",
      "type": "event"
    },
    {
      "anonymous": false,
      "inputs": [
        {
          "indexed": true,
          "internalType": "address",
          "name": "seller",
          "type": "address"
        },
        {
          "indexed": false,
          "internalType": "uint256",
          "name": "rating",
          "type": "uint256"
        },
        {
          "indexed": true,
          "internalType": "address",
          "name": "rater",
          "type": "address"
        }
      ],
      "name": "SellerRated",
      "type": "event"
    },
    {
      "inputs": [
        {
          "internalType": "address",
          "name": "",
          "type": "address"
        },
        {
          "internalType": "uint256",
          "name": "",
          "type": "uint256"
        }
      ],
      "name": "allRatings",
      "outputs": [
        {
          "internalType": "address",
          "name": "rater",
          "type": "address"
        },
        {
          "internalType": "uint256",
          "name": "rating",
          "type": "uint256"
        },
        {
          "internalType": "uint256",
          "name": "timestamp",
          "type": "uint256"
        }
      ],
      "stateMutability": "view",
      "type": "function",
      "constant": true
    },
    {
      "inputs": [
        {
          "internalType": "uint256",
          "name": "",
          "type": "uint256"
        }
      ],
      "name": "fruits",
      "outputs": [
        {
          "internalType": "string",
          "name": "name",
          "type": "string"
        },
        {
          "internalType": "uint256",
          "name": "price",
          "type": "uint256"
        },
        {
          "internalType": "address payable",
          "name": "seller",
          "type": "address"
        },
        {
          "internalType": "bool",
          "name": "available",
          "type": "bool"
        },
        {
          "internalType": "address",
          "name": "buyer",
          "type": "address"
        }
      ],
      "stateMutability": "view",
      "type": "function",
      "constant": true
    },
    {
      "inputs": [
        {
          "internalType": "address",
          "name": "",
          "type": "address"
        },
        {
          "internalType": "address",
          "name": "",
          "type": "address"
        }
      ],
      "name": "hasBoughtFrom",
      "outputs": [
        {
          "internalType": "bool",
          "name": "",
          "type": "bool"
        }
      ],
      "stateMutability": "view",
      "type": "function",
      "constant": true
    },
    {
      "inputs": [
        {
          "internalType": "address",
          "name": "",
          "type": "address"
        },
        {
          "internalType": "address",
          "name": "",
          "type": "address"
        }
      ],
      "name": "hasRated",
      "outputs": [
        {
          "internalType": "bool",
          "name": "",
          "type": "bool"
        }
      ],
      "stateMutability": "view",
      "type": "function",
      "constant": true
    },
    {
      "inputs": [
        {
          "internalType": "address",
          "name": "",
          "type": "address"
        },
        {
          "internalType": "uint256",
          "name": "",
          "type": "uint256"
        }
      ],
      "name": "sellerFruits",
      "outputs": [
        {
          "internalType": "uint256",
          "name": "",
          "type": "uint256"
        }
      ],
      "stateMutability": "view",
      "type": "function",
      "constant": true
    },
    {
      "inputs": [
        {
          "internalType": "address",
          "name": "",
          "type": "address"
        }
      ],
      "name": "sellerRatings",
      "outputs": [
        {
          "internalType": "uint256",
          "name": "rating",
          "type": "uint256"
        },
        {
          "internalType": "uint256",
          "name": "totalRating",
          "type": "uint256"
        },
        {
          "internalType": "uint256",
          "name": "numberOfRatings",
          "type": "uint256"
        }
      ],
      "stateMutability": "view",
      "type": "function",
      "constant": true
    },
    {
      "inputs": [
        {
          "internalType": "string",
          "name": "_name",
          "type": "string"
        },
        {
          "internalType": "uint256",
          "name": "_price",
          "type": "uint256"
        }
      ],
      "name": "addFruit",
      "outputs": [],
      "stateMutability": "nonpayable",
      "type": "function"
    },
    {
      "inputs": [
        {
          "internalType": "uint256",
          "name": "_index",
          "type": "uint256"
        }
      ],
      "name": "buyFruit",
      "outputs": [],
      "stateMutability": "payable",
      "type": "function",
      "payable": true
    },
    {
      "inputs": [
        {
          "internalType": "address",
          "name": "_seller",
          "type": "address"
        },
        {
          "internalType": "uint256",
          "name": "_rating",
          "type": "uint256"
        }
      ],
      "name": "rateSeller",
      "outputs": [],
      "stateMutability": "nonpayable",
      "type": "function"
    },
    {
      "inputs": [
        {
          "internalType": "address",
          "name": "_seller",
          "type": "address"
        }
      ],
      "name": "getAllRatings",
      "outputs": [
        {
          "internalType": "address[]",
          "name": "raters",
          "type": "address[]"
        },
        {
          "internalType": "uint256[]",
          "name": "ratings",
          "type": "uint256[]"
        },
        {
          "internalType": "uint256[]",
          "name": "timestamps",
          "type": "uint256[]"
        }
      ],
      "stateMutability": "view",
      "type": "function",
      "constant": true
    },
    {
      "inputs": [
        {
          "internalType": "uint256",
          "name": "_index",
          "type": "uint256"
        },
        {
          "internalType": "string",
          "name": "_name",
          "type": "string"
        },
        {
          "internalType": "uint256",
          "name": "_price",
          "type": "uint256"
        }
      ],
      "name": "updateFruit",
      "outputs": [],
      "stateMutability": "nonpayable",
      "type": "function"
    },
    {
      "inputs": [
        {
          "internalType": "address",
          "name": "_seller",
          "type": "address"
        }
      ],
      "name": "getSellerAverageRating",
      "outputs": [
        {
          "internalType": "uint256",
          "name": "",
          "type": "uint256"
        }
      ],
      "stateMutability": "view",
      "type": "function",
      "constant": true
    },
    {
      "inputs": [],
      "name": "getFruitCount",
      "outputs": [
        {
          "internalType": "uint256",
          "name": "",
          "type": "uint256"
        }
      ],
      "stateMutability": "view",
      "type": "function",
      "constant": true
    },
    {
      "inputs": [
        {
          "internalType": "uint256",
          "name": "_index",
          "type": "uint256"
        }
      ],
      "name": "getFruit",
      "outputs": [
        {
          "internalType": "string",
          "name": "name",
          "type": "string"
        },
        {
          "internalType": "uint256",
          "name": "price",
          "type": "uint256"
        },
        {
          "internalType": "address",
          "name": "seller",
          "type": "address"
        },
        {
          "internalType": "bool",
          "name": "available",
          "type": "bool"
        },
        {
          "internalType": "address",
          "name": "buyer",
          "type": "address"
        }
      ],
      "stateMutability": "view",
      "type": "function",
      "constant": true
    }
  ],
  "bytecode": "0x608060405234801561000f575f80fd5b506126908061001d5f395ff3fe6080604052600436106100dc575f3560e01c80639878003f1161007e578063be932ebd11610058578063be932ebd146102d2578063c3bbf30f1461030e578063c41721621461034c578063f303911e1461038c576100dc565b80639878003f146102505780639d08b3461461028c578063ba476b6b146102a8576100dc565b80632c365df6116100ba5780632c365df6146101845780637247f9ea146101c0578063742ab0d3146101e857806376ce7fe914610210576100dc565b806305576112146100e057806319617b6a1461011e5780631b3f48e71461015c575b5f80fd5b3480156100eb575f80fd5b5061010660048036038101906101019190611754565b6103c8565b604051610115939291906118f6565b60405180910390f35b348015610129575f80fd5b50610144600480360381019061013f9190611754565b61062f565b6040516101539392919061194f565b60405180910390f35b348015610167575f80fd5b50610182600480360381019061017d9190611aea565b610655565b005b34801561018f575f80fd5b506101aa60048036038101906101a59190611b44565b6108ab565b6040516101b79190611b9c565b60405180910390f35b3480156101cb575f80fd5b506101e660048036038101906101e19190611bb5565b6108d5565b005b3480156101f3575f80fd5b5061020e60048036038101906102099190611c21565b610abb565b005b34801561021b575f80fd5b5061023660048036038101906102319190611c5f565b610f1c565b604051610247959493929190611d13565b60405180910390f35b34801561025b575f80fd5b5061027660048036038101906102719190611b44565b61111f565b6040516102839190611b9c565b60405180910390f35b6102a660048036038101906102a19190611c5f565b611149565b005b3480156102b3575f80fd5b506102bc6114a9565b6040516102c99190611d6b565b60405180910390f35b3480156102dd575f80fd5b506102f860048036038101906102f39190611754565b6114b4565b6040516103059190611d6b565b60405180910390f35b348015610319575f80fd5b50610334600480360381019061032f9190611c21565b61154e565b60405161034393929190611d84565b60405180910390f35b348015610357575f80fd5b50610372600480360381019061036d9190611c5f565b6115ad565b604051610383959493929190611dd9565b60405180910390f35b348015610397575f80fd5b506103b260048036038101906103ad9190611c21565b6116be565b6040516103bf9190611d6b565b60405180910390f35b60608060605f60025f8673ffffffffffffffffffffffffffffffffffffffff1673ffffffffffffffffffffffffffffffffffffffff1681526020019081526020015f208054905090508067ffffffffffffffff81111561042b5761042a61199c565b5b6040519080825280602002602001820160405280156104595781602001602082028036833780820191505090505b5093508067ffffffffffffffff8111156104765761047561199c565b5b6040519080825280602002602001820160405280156104a45781602001602082028036833780820191505090505b5092508067ffffffffffffffff8111156104c1576104c061199c565b5b6040519080825280602002602001820160405280156104ef5781602001602082028036833780820191505090505b5091505f5b81811015610626575f60025f8873ffffffffffffffffffffffffffffffffffffffff1673ffffffffffffffffffffffffffffffffffffffff1681526020019081526020015f20828154811061054c5761054b611e31565b5b905f5260205f2090600302019050805f015f9054906101000a900473ffffffffffffffffffffffffffffffffffffffff168683815181106105905761058f611e31565b5b602002602001019073ffffffffffffffffffffffffffffffffffffffff16908173ffffffffffffffffffffffffffffffffffffffff168152505080600101548583815181106105e2576105e1611e31565b5b602002602001018181525050806002015484838151811061060657610605611e31565b5b60200260200101818152505050808061061e90611e8b565b9150506104f4565b50509193909250565b6003602052805f5260405f205f91509050805f0154908060010154908060020154905083565b5f8111610697576040517f08c379a000000000000000000000000000000000000000000000000000000000815260040161068e90611f1c565b60405180910390fd5b5f6040518060a001604052808481526020018381526020013373ffffffffffffffffffffffffffffffffffffffff1681526020016001151581526020015f73ffffffffffffffffffffffffffffffffffffffff16815250908060018154018082558091505060019003905f5260205f2090600402015f909190919091505f820151815f0190816107279190612134565b50602082015181600101556040820151816002015f6101000a81548173ffffffffffffffffffffffffffffffffffffffff021916908373ffffffffffffffffffffffffffffffffffffffff16021790555060608201518160020160146101000a81548160ff0219169083151502179055506080820151816003015f6101000a81548173ffffffffffffffffffffffffffffffffffffffff021916908373ffffffffffffffffffffffffffffffffffffffff16021790555050505f60015f805490506107f29190612203565b905060015f3373ffffffffffffffffffffffffffffffffffffffff1673ffffffffffffffffffffffffffffffffffffffff1681526020019081526020015f2081908060018154018082558091505060019003905f5260205f20015f90919091909150553373ffffffffffffffffffffffffffffffffffffffff16817f9e95c928c5cf446133642e8ee9d310a8a04b942419e2f132336aa8ca61f55db7858560405161089e929190612236565b60405180910390a3505050565b6004602052815f5260405f20602052805f5260405f205f915091509054906101000a900460ff1681565b5f80549050831061091b576040517f08c379a0000000000000000000000000000000000000000000000000000000008152600401610912906122ae565b60405180910390fd5b5f811161095d576040517f08c379a000000000000000000000000000000000000000000000000000000000815260040161095490611f1c565b60405180910390fd5b5f80848154811061097157610970611e31565b5b905f5260205f2090600402019050806002015f9054906101000a900473ffffffffffffffffffffffffffffffffffffffff1673ffffffffffffffffffffffffffffffffffffffff163373ffffffffffffffffffffffffffffffffffffffff1614610a10576040517f08c379a0000000000000000000000000000000000000000000000000000000008152600401610a0790612316565b60405180910390fd5b8060020160149054906101000a900460ff16610a61576040517f08c379a0000000000000000000000000000000000000000000000000000000008152600401610a589061237e565b60405180910390fd5b82815f019081610a719190612134565b50818160010181905550837f38240f3cfedc3627841e88b5daf699605d3f9f98d8a8e92d29f9f48e4ae4a9ee8484604051610aad929190612236565b60405180910390a250505050565b6005811115610aff576040517f08c379a0000000000000000000000000000000000000000000000000000000008152600401610af6906123e6565b60405180910390fd5b60045f3373ffffffffffffffffffffffffffffffffffffffff1673ffffffffffffffffffffffffffffffffffffffff1681526020019081526020015f205f8373ffffffffffffffffffffffffffffffffffffffff1673ffffffffffffffffffffffffffffffffffffffff1681526020019081526020015f205f9054906101000a900460ff1615610bc4576040517f08c379a0000000000000000000000000000000000000000000000000000000008152600401610bbb9061244e565b60405180910390fd5b60055f3373ffffffffffffffffffffffffffffffffffffffff1673ffffffffffffffffffffffffffffffffffffffff1681526020019081526020015f205f8373ffffffffffffffffffffffffffffffffffffffff1673ffffffffffffffffffffffffffffffffffffffff1681526020019081526020015f205f9054906101000a900460ff16610c88576040517f08c379a0000000000000000000000000000000000000000000000000000000008152600401610c7f906124dc565b60405180910390fd5b8060035f8473ffffffffffffffffffffffffffffffffffffffff1673ffffffffffffffffffffffffffffffffffffffff1681526020019081526020015f206001015f828254610cd791906124fa565b92505081905550600160035f8473ffffffffffffffffffffffffffffffffffffffff1673ffffffffffffffffffffffffffffffffffffffff1681526020019081526020015f206002015f828254610d2e91906124fa565b92505081905550600160045f3373ffffffffffffffffffffffffffffffffffffffff1673ffffffffffffffffffffffffffffffffffffffff1681526020019081526020015f205f8473ffffffffffffffffffffffffffffffffffffffff1673ffffffffffffffffffffffffffffffffffffffff1681526020019081526020015f205f6101000a81548160ff02191690831515021790555060025f8373ffffffffffffffffffffffffffffffffffffffff1673ffffffffffffffffffffffffffffffffffffffff1681526020019081526020015f2060405180606001604052803373ffffffffffffffffffffffffffffffffffffffff16815260200183815260200142815250908060018154018082558091505060019003905f5260205f2090600302015f909190919091505f820151815f015f6101000a81548173ffffffffffffffffffffffffffffffffffffffff021916908373ffffffffffffffffffffffffffffffffffffffff160217905550602082015181600101556040820151816002015550503373ffffffffffffffffffffffffffffffffffffffff168273ffffffffffffffffffffffffffffffffffffffff167fd1e1a75de6d871246d9a51ee6f672019e38ac805a7adf094efce5b204ad2e84c83604051610f109190611d6b565b60405180910390a35050565b60605f805f805f805490508610610f68576040517f08c379a0000000000000000000000000000000000000000000000000000000008152600401610f5f906122ae565b60405180910390fd5b5f808781548110610f7c57610f7b611e31565b5b905f5260205f2090600402016040518060a00160405290815f82018054610fa290611f67565b80601f0160208091040260200160405190810160405280929190818152602001828054610fce90611f67565b80156110195780601f10610ff057610100808354040283529160200191611019565b820191905f5260205f20905b815481529060010190602001808311610ffc57829003601f168201915b5050505050815260200160018201548152602001600282015f9054906101000a900473ffffffffffffffffffffffffffffffffffffffff1673ffffffffffffffffffffffffffffffffffffffff1673ffffffffffffffffffffffffffffffffffffffff1681526020016002820160149054906101000a900460ff16151515158152602001600382015f9054906101000a900473ffffffffffffffffffffffffffffffffffffffff1673ffffffffffffffffffffffffffffffffffffffff1673ffffffffffffffffffffffffffffffffffffffff16815250509050805f01518160200151826040015183606001518460800151955095509550955095505091939590929450565b6005602052815f5260405f20602052805f5260405f205f915091509054906101000a900460ff1681565b5f80549050811061118f576040517f08c379a0000000000000000000000000000000000000000000000000000000008152600401611186906122ae565b60405180910390fd5b5f8082815481106111a3576111a2611e31565b5b905f5260205f20906004020190508060020160149054906101000a900460ff16611202576040517f08c379a00000000000000000000000000000000000000000000000000000000081526004016111f99061237e565b60405180910390fd5b8060010154341015611249576040517f08c379a000000000000000000000000000000000000000000000000000000000815260040161124090612577565b60405180910390fd5b806002015f9054906101000a900473ffffffffffffffffffffffffffffffffffffffff1673ffffffffffffffffffffffffffffffffffffffff163373ffffffffffffffffffffffffffffffffffffffff16036112da576040517f08c379a00000000000000000000000000000000000000000000000000000000081526004016112d1906125df565b60405180910390fd5b5f8160020160146101000a81548160ff02191690831515021790555033816003015f6101000a81548173ffffffffffffffffffffffffffffffffffffffff021916908373ffffffffffffffffffffffffffffffffffffffff160217905550806002015f9054906101000a900473ffffffffffffffffffffffffffffffffffffffff1673ffffffffffffffffffffffffffffffffffffffff166108fc3490811502906040515f60405180830381858888f1935050505015801561139e573d5f803e3d5ffd5b50600160055f3373ffffffffffffffffffffffffffffffffffffffff1673ffffffffffffffffffffffffffffffffffffffff1681526020019081526020015f205f836002015f9054906101000a900473ffffffffffffffffffffffffffffffffffffffff1673ffffffffffffffffffffffffffffffffffffffff1673ffffffffffffffffffffffffffffffffffffffff1681526020019081526020015f205f6101000a81548160ff0219169083151502179055503373ffffffffffffffffffffffffffffffffffffffff16827f6a15588c94cf26e8d964d904d94dba7e933524e1b1937cac731d45d9060c54fe836001015460405161149d9190611d6b565b60405180910390a35050565b5f8080549050905090565b5f8060035f8473ffffffffffffffffffffffffffffffffffffffff1673ffffffffffffffffffffffffffffffffffffffff1681526020019081526020015f206040518060600160405290815f82015481526020016001820154815260200160028201548152505090505f816040015103611531575f915050611549565b80604001518160200151611545919061262a565b9150505b919050565b6002602052815f5260405f208181548110611567575f80fd5b905f5260205f2090600302015f9150915050805f015f9054906101000a900473ffffffffffffffffffffffffffffffffffffffff16908060010154908060020154905083565b5f81815481106115bb575f80fd5b905f5260205f2090600402015f91509050805f0180546115da90611f67565b80601f016020809104026020016040519081016040528092919081815260200182805461160690611f67565b80156116515780601f1061162857610100808354040283529160200191611651565b820191905f5260205f20905b81548152906001019060200180831161163457829003601f168201915b505050505090806001015490806002015f9054906101000a900473ffffffffffffffffffffffffffffffffffffffff16908060020160149054906101000a900460ff1690806003015f9054906101000a900473ffffffffffffffffffffffffffffffffffffffff16905085565b6001602052815f5260405f2081815481106116d7575f80fd5b905f5260205f20015f91509150505481565b5f604051905090565b5f80fd5b5f80fd5b5f73ffffffffffffffffffffffffffffffffffffffff82169050919050565b5f611723826116fa565b9050919050565b61173381611719565b811461173d575f80fd5b50565b5f8135905061174e8161172a565b92915050565b5f60208284031215611769576117686116f2565b5b5f61177684828501611740565b91505092915050565b5f81519050919050565b5f82825260208201905092915050565b5f819050602082019050919050565b6117b181611719565b82525050565b5f6117c283836117a8565b60208301905092915050565b5f602082019050919050565b5f6117e48261177f565b6117ee8185611789565b93506117f983611799565b805f5b8381101561182957815161181088826117b7565b975061181b836117ce565b9250506001810190506117fc565b5085935050505092915050565b5f81519050919050565b5f82825260208201905092915050565b5f819050602082019050919050565b5f819050919050565b6118718161185f565b82525050565b5f6118828383611868565b60208301905092915050565b5f602082019050919050565b5f6118a482611836565b6118ae8185611840565b93506118b983611850565b805f5b838110156118e95781516118d08882611877565b97506118db8361188e565b9250506001810190506118bc565b5085935050505092915050565b5f6060820190508181035f83015261190e81866117da565b90508181036020830152611922818561189a565b90508181036040830152611936818461189a565b9050949350505050565b6119498161185f565b82525050565b5f6060820190506119625f830186611940565b61196f6020830185611940565b61197c6040830184611940565b949350505050565b5f80fd5b5f80fd5b5f601f19601f8301169050919050565b7f4e487b71000000000000000000000000000000000000000000000000000000005f52604160045260245ffd5b6119d28261198c565b810181811067ffffffffffffffff821117156119f1576119f061199c565b5b80604052505050565b5f611a036116e9565b9050611a0f82826119c9565b919050565b5f67ffffffffffffffff821115611a2e57611a2d61199c565b5b611a378261198c565b9050602081019050919050565b828183375f83830152505050565b5f611a64611a5f84611a14565b6119fa565b905082815260208101848484011115611a8057611a7f611988565b5b611a8b848285611a44565b509392505050565b5f82601f830112611aa757611aa6611984565b5b8135611ab7848260208601611a52565b91505092915050565b611ac98161185f565b8114611ad3575f80fd5b50565b5f81359050611ae481611ac0565b92915050565b5f8060408385031215611b0057611aff6116f2565b5b5f83013567ffffffffffffffff811115611b1d57611b1c6116f6565b5b611b2985828601611a93565b9250506020611b3a85828601611ad6565b9150509250929050565b5f8060408385031215611b5a57611b596116f2565b5b5f611b6785828601611740565b9250506020611b7885828601611740565b9150509250929050565b5f8115159050919050565b611b9681611b82565b82525050565b5f602082019050611baf5f830184611b8d565b92915050565b5f805f60608486031215611bcc57611bcb6116f2565b5b5f611bd986828701611ad6565b935050602084013567ffffffffffffffff811115611bfa57611bf96116f6565b5b611c0686828701611a93565b9250506040611c1786828701611ad6565b9150509250925092565b5f8060408385031215611c3757611c366116f2565b5b5f611c4485828601611740565b9250506020611c5585828601611ad6565b9150509250929050565b5f60208284031215611c7457611c736116f2565b5b5f611c8184828501611ad6565b91505092915050565b5f81519050919050565b5f82825260208201905092915050565b5f5b83811015611cc1578082015181840152602081019050611ca6565b5f8484015250505050565b5f611cd682611c8a565b611ce08185611c94565b9350611cf0818560208601611ca4565b611cf98161198c565b840191505092915050565b611d0d81611719565b82525050565b5f60a0820190508181035f830152611d2b8188611ccc565b9050611d3a6020830187611940565b611d476040830186611d04565b611d546060830185611b8d565b611d616080830184611d04565b9695505050505050565b5f602082019050611d7e5f830184611940565b92915050565b5f606082019050611d975f830186611d04565b611da46020830185611940565b611db16040830184611940565b949350505050565b5f611dc3826116fa565b9050919050565b611dd381611db9565b82525050565b5f60a0820190508181035f830152611df18188611ccc565b9050611e006020830187611940565b611e0d6040830186611dca565b611e1a6060830185611b8d565b611e276080830184611d04565b9695505050505050565b7f4e487b71000000000000000000000000000000000000000000000000000000005f52603260045260245ffd5b7f4e487b71000000000000000000000000000000000000000000000000000000005f52601160045260245ffd5b5f611e958261185f565b91507fffffffffffffffffffffffffffffffffffffffffffffffffffffffffffffffff8203611ec757611ec6611e5e565b5b600182019050919050565b7f5072696365206d7573742062652067726561746572207468616e2030000000005f82015250565b5f611f06601c83611c94565b9150611f1182611ed2565b602082019050919050565b5f6020820190508181035f830152611f3381611efa565b9050919050565b7f4e487b71000000000000000000000000000000000000000000000000000000005f52602260045260245ffd5b5f6002820490506001821680611f7e57607f821691505b602082108103611f9157611f90611f3a565b5b50919050565b5f819050815f5260205f209050919050565b5f6020601f8301049050919050565b5f82821b905092915050565b5f60088302611ff37fffffffffffffffffffffffffffffffffffffffffffffffffffffffffffffffff82611fb8565b611ffd8683611fb8565b95508019841693508086168417925050509392505050565b5f819050919050565b5f61203861203361202e8461185f565b612015565b61185f565b9050919050565b5f819050919050565b6120518361201e565b61206561205d8261203f565b848454611fc4565b825550505050565b5f90565b61207961206d565b612084818484612048565b505050565b5b818110156120a75761209c5f82612071565b60018101905061208a565b5050565b601f8211156120ec576120bd81611f97565b6120c684611fa9565b810160208510156120d5578190505b6120e96120e185611fa9565b830182612089565b50505b505050565b5f82821c905092915050565b5f61210c5f19846008026120f1565b1980831691505092915050565b5f61212483836120fd565b9150826002028217905092915050565b61213d82611c8a565b67ffffffffffffffff8111156121565761215561199c565b5b6121608254611f67565b61216b8282856120ab565b5f60209050601f83116001811461219c575f841561218a578287015190505b6121948582612119565b8655506121fb565b601f1984166121aa86611f97565b5f5b828110156121d1578489015182556001820191506020850194506020810190506121ac565b868310156121ee57848901516121ea601f8916826120fd565b8355505b6001600288020188555050505b505050505050565b5f61220d8261185f565b91506122188361185f565b92508282039050818111156122305761222f611e5e565b5b92915050565b5f6040820190508181035f83015261224e8185611ccc565b905061225d6020830184611940565b9392505050565b7f496e76616c696420667275697420696e646578000000000000000000000000005f82015250565b5f612298601383611c94565b91506122a382612264565b602082019050919050565b5f6020820190508181035f8301526122c58161228c565b9050919050565b7f4f6e6c792073656c6c65722063616e20757064617465000000000000000000005f82015250565b5f612300601683611c94565b915061230b826122cc565b602082019050919050565b5f6020820190508181035f83015261232d816122f4565b9050919050565b7f467275697420616c726561647920736f6c6400000000000000000000000000005f82015250565b5f612368601283611c94565b915061237382612334565b602082019050919050565b5f6020820190508181035f8301526123958161235c565b9050919050565b7f526174696e67206d757374206265206f7574206f6620350000000000000000005f82015250565b5f6123d0601783611c94565b91506123db8261239c565b602082019050919050565b5f6020820190508181035f8301526123fd816123c4565b9050919050565b7f596f7520616c726561647920726174656420746869732073656c6c65720000005f82015250565b5f612438601d83611c94565b915061244382612404565b602082019050919050565b5f6020820190508181035f8301526124658161242c565b9050919050565b7f596f75206d757374206861766520626f756768742066726f6d207468697320735f8201527f656c6c6572000000000000000000000000000000000000000000000000000000602082015250565b5f6124c6602583611c94565b91506124d18261246c565b604082019050919050565b5f6020820190508181035f8301526124f3816124ba565b9050919050565b5f6125048261185f565b915061250f8361185f565b925082820190508082111561252757612526611e5e565b5b92915050565b7f4e6f7420656e6f7567682066756e6473000000000000000000000000000000005f82015250565b5f612561601083611c94565b915061256c8261252d565b602082019050919050565b5f6020820190508181035f83015261258e81612555565b9050919050565b7f53656c6c65722063616e6e6f7420627579206f776e20667275697400000000005f82015250565b5f6125c9601b83611c94565b91506125d482612595565b602082019050919050565b5f6020820190508181035f8301526125f6816125bd565b9050919050565b7f4e487b71000000000000000000000000000000000000000000000000000000005f52601260045260245ffd5b5f6126348261185f565b915061263f8361185f565b92508261264f5761264e6125fd565b5b82820490509291505056fea2646970667358221220381f9351578cd559bae159b802a3f37c501dea40aed96a9eb4f8404227101cac64736f6c63430008150033",
  "immutableReferences": {},
  "source": "// SPDX-License-Identifier: MIT\r\npragma solidity ^0.8.20;\r\n\r\ncontract FruitMarketplace {\r\n    struct Fruit {\r\n        string name;\r\n        uint price;\r\n        address payable seller;\r\n        bool available;\r\n        address buyer;\r\n    }\r\n    struct IndividualRating {\r\n        address rater;\r\n        uint rating;\r\n        uint timestamp;\r\n    }\r\n\r\n    struct Rating {\r\n        uint rating;\r\n        uint totalRating;\r\n        uint numberOfRatings;\r\n    }\r\n\r\n    Fruit[] public fruits;\r\n\r\n    mapping(address => uint[]) public sellerFruits;\r\n    mapping(address => IndividualRating[]) public allRatings;\r\n    mapping(address => Rating) public sellerRatings;\r\n    mapping(address => mapping(address => bool)) public hasRated;\r\n    mapping(address => mapping(address => bool)) public hasBoughtFrom;\r\n\r\n    event FruitAdded(\r\n        uint indexed index,\r\n        string name,\r\n        uint price,\r\n        address indexed seller\r\n    );\r\n    event FruitBought(uint indexed index, address indexed buyer, uint price);\r\n    event SellerRated(\r\n        address indexed seller,\r\n        uint rating,\r\n        address indexed rater\r\n    );\r\n    event FruitUpdated(uint indexed index, string name, uint price);\r\n\r\n    // Ajouter un fruit\r\n    function addFruit(string memory _name, uint _price) public {\r\n        require(_price > 0, \"Price must be greater than 0\");\r\n        fruits.push(\r\n            Fruit(_name, _price, payable(msg.sender), true, address(0))\r\n        );\r\n        uint index = fruits.length - 1;\r\n        sellerFruits[msg.sender].push(index);\r\n\r\n        emit FruitAdded(index, _name, _price, msg.sender);\r\n    }\r\n\r\n    // Acheter un fruit\r\n    function buyFruit(uint _index) public payable {\r\n        require(_index < fruits.length, \"Invalid fruit index\");\r\n        Fruit storage fruit = fruits[_index];\r\n        require(fruit.available, \"Fruit already sold\");\r\n        require(msg.value >= fruit.price, \"Not enough funds\");\r\n        require(msg.sender != fruit.seller, \"Seller cannot buy own fruit\");\r\n\r\n        fruit.available = false;\r\n        fruit.buyer = msg.sender;\r\n        fruit.seller.transfer(msg.value);\r\n        hasBoughtFrom[msg.sender][fruit.seller] = true;\r\n\r\n        emit FruitBought(_index, msg.sender, fruit.price);\r\n    }\r\n\r\n    // Noter un vendeur\r\n    function rateSeller(address _seller, uint _rating) public {\r\n        require(_rating <= 5, \"Rating must be out of 5\");\r\n        require(\r\n            !hasRated[msg.sender][_seller],\r\n            \"You already rated this seller\"\r\n        );\r\n        require(\r\n            hasBoughtFrom[msg.sender][_seller],\r\n            \"You must have bought from this seller\"\r\n        );\r\n\r\n        sellerRatings[_seller].totalRating += _rating;\r\n        sellerRatings[_seller].numberOfRatings += 1;\r\n        hasRated[msg.sender][_seller] = true;\r\n\r\n        // Enregistrer la note individuelle\r\n        allRatings[_seller].push(\r\n            IndividualRating({\r\n                rater: msg.sender,\r\n                rating: _rating,\r\n                timestamp: block.timestamp\r\n            })\r\n        );\r\n\r\n        emit SellerRated(_seller, _rating, msg.sender);\r\n    }\r\n\r\n    function getAllRatings(\r\n        address _seller\r\n    )\r\n        public\r\n        view\r\n        returns (\r\n            address[] memory raters,\r\n            uint[] memory ratings,\r\n            uint[] memory timestamps\r\n        )\r\n    {\r\n        uint count = allRatings[_seller].length;\r\n        raters = new address[](count);\r\n        ratings = new uint[](count);\r\n        timestamps = new uint[](count);\r\n\r\n        for (uint i = 0; i < count; i++) {\r\n            IndividualRating storage r = allRatings[_seller][i];\r\n            raters[i] = r.rater;\r\n            ratings[i] = r.rating;\r\n            timestamps[i] = r.timestamp;\r\n        }\r\n    }\r\n\r\n    // Mettre  jour un fruit\r\n    function updateFruit(uint _index, string memory _name, uint _price) public {\r\n        require(_index < fruits.length, \"Invalid fruit index\");\r\n        require(_price > 0, \"Price must be greater than 0\");\r\n\r\n        Fruit storage fruit = fruits[_index];\r\n        require(msg.sender == fruit.seller, \"Only seller can update\");\r\n        require(fruit.available, \"Fruit already sold\");\r\n\r\n        fruit.name = _name;\r\n        fruit.price = _price;\r\n\r\n        emit FruitUpdated(_index, _name, _price);\r\n    }\r\n\r\n    // Moyenne de note dun vendeur\r\n    function getSellerAverageRating(\r\n        address _seller\r\n    ) public view returns (uint) {\r\n        Rating memory r = sellerRatings[_seller];\r\n        if (r.numberOfRatings == 0) return 0;\r\n        return r.totalRating / r.numberOfRatings;\r\n    }\r\n\r\n    // Nouvelle fonction : Nombre total de fruits\r\n    function getFruitCount() public view returns (uint) {\r\n        return fruits.length;\r\n    }\r\n\r\n    // Nouvelle fonction : Dtails dun fruit\r\n    function getFruit(\r\n        uint _index\r\n    )\r\n        public\r\n        view\r\n        returns (\r\n            string memory name,\r\n            uint price,\r\n            address seller,\r\n            bool available,\r\n            address buyer\r\n        )\r\n    {\r\n        require(_index < fruits.length, \"Invalid fruit index\");\r\n        Fruit memory fruit = fruits[_index];\r\n        return (\r\n            fruit.name,\r\n            fruit.price,\r\n            fruit.seller,\r\n            fruit.available,\r\n            fruit.buyer\r\n        );\r\n    }\r\n}\r\n",
  "sourcePath": "D:\\GLO7100\\ethereum\\contracts\\FruitMarketplace.sol",
  "compiler": {
    "name": "solc",
    "version": "0.8.21+commit.d9974bed.Emscripten.clang"
  },
  "schemaVersion": "3.4.16",
  "updatedAt": "2025-04-25T04:18:10.002Z",
  "networkType": "ethereum",
  "devdoc": {
    "kind": "dev",
    "methods": {},
    "version": 1
  },
  "userdoc": {
    "kind": "user",
    "methods": {},
    "version": 1
  }
}